:1000000069C0000083C0000081C000007FC0000004
:100010007DC000007BC0000079C0000077C00000F8
:1000200075C0000073C0000071C000006FC0000008
:100030006DC000006BC0000069C0000067C0000018
:1000400065C0000063C0000061C000005FC0000028
:100050005DC000005BC0000059C0000057C0000038
:1000600055C0000053C0000051C000004FC0000048
:100070004DC000004BC0000049C0000047C0000058
:1000800045C0000043C000000C94090C3FC00000B4
:100090003DC000003BC0000039C0000037C0000078
:1000A00036C0000033C0000031C000008D08C10818
:1000B000A708F608F608F608F608F608F608F6089F
:1000C000D90824082608E807F6070A08F608F608FB
:1000D000F608820811241FBECFEFCDBFDFE2DEBFDE
:1000E00010E2A0E0B0E2E4E0FEE202C005900D9272
:1000F000AE32B107D9F721E2AEE2B0E201C01D9203
:10010000A738B207E1F748D10C94001779CF1F92B6
:100110000F920FB60F9211242F933F934F935F933B
:100120006F937F938F939F93AF93BF93CF93DF93FF
:10013000EF93FF93C0916D21D0916E21C63021E0E5
:10014000D20748F580EC99E00E940011CE59DF4DAE
:100150008883809162208E37D1F480916D219091B7
:100160006E21853021E0920761F4809167218A3AFF
:1001700091F481E080935F2010926D2110926E21A6
:100180000AC0019680936D2190936E2104C0109255
:100190006D2110926E21FF91EF91DF91CF91BF9170
:1001A000AF919F918F917F916F915F914F913F910F
:1001B0002F910F900FBE0F901F9018952F923F9286
:1001C0004F925F926F927F928F929F92AF92BF9267
:1001D000CF92DF92EF92FF920F931F93CF93DF9313
:1001E000CDB7DEB76697CDBFDEBF8E010F5F1F4F65
:1001F0007E0125E1E20EF11C680180915F208130D3
:1002000009F4CBD65CD1F601819391936F01EE1581
:10021000FF0599F76AE070E0CE010196BED2AB848B
:10022000BC8489859A85A80EB91E8D859E85A80EE9
:10023000B91E8F859889A80EB91EB694A794B69456
:10024000A7941501FDEC3F1A220C331C2101612CEF
:10025000712CC301B2015DD4019609F087C0C501BC
:10026000815095408F3F974008F080C0B101705297
:1002700080E090E04ED44C01C12CD12C80E090E085
:100280000D8B1E8B41C0C80CD91CB60180E090E0DC
:100290000E9437142091592030915A2040915B20C0
:1002A00050915C200E94C5140E940614209169217F
:1002B00030916A21C901860F971F6DD28BEA96E4AF
:1002C000A0E1B0E00197A109B109E1F70D891E890C
:1002D00078D1F801819391938F01EE15FF05C1F755
:1002E00029853A858F819885820F931F2B853C85C0
:1002F000820F931F2D853E85820F931F96958795BC
:1003000096958795C81AD90A9401281B390BC901FB
:100310008F3F3FEF93070CF4B6CF02970CF0B3CFAB
:100320008CEFD81A80916821811108C081E08093F8
:100330006821C0926B21D0926C2118C0C6014496EE
:10034000899748F0E2E0AE0EB11CF5E0AF16B104BB
:1003500010F4C12CD12C4D2DC301B201F8D3B10141
:100360006F5F7F4F80E090E04C2DF1D36696CDBF5C
:10037000DEBFDF91CF911F910F91FF90EF90DF9043
:10038000CF90BF90AF909F908F907F906F905F9035
:100390004F903F902F900895CF93DF931F92CDB74A
:1003A000DEB70E948F0B0E94DD0A87E08093A200D7
:1003B0007894EFE6F1E210821182128213821482A5
:1003C00081E085838FB78983F894998184818F5FD9
:1003D00084839FBF4AD305D280E00E94F209BDD733
:1003E00086E591E6A1E5B0E00197A109B109E1F741
:1003F00028D780E090E0A0E8BFE380935920909355
:100400005A20A0935B20B0935C2010926921109237
:100410006A2160E070E480E090E06AD390E080932D
:100420005D2090935E208F3F910521F480E093E062
:100430000E949B0D44D09D5CBC01660F771F80E03D
:1004400090E067D380936B2190936C211092682188
:1004500010926D2110926E2110925F2010926120F7
:1004600080915F20813009F498D580915D20909132
:100470005E20009719F4A2DE7DD3F2CF019781F7B9
:100480009DDE00D4EDCFCF93DF931F92CDB7DEB7C3
:10049000FAD1E0E0F2E0868180FFFDCFE0E0F2E01B
:1004A00081E086838FB78983F894298184A195A1FF
:1004B0002FBF0F90DF91CF910895E5CF08958F92D0
:1004C0009F92AF92BF92DF92EF92FF920F931F9392
:1004D000CF93DF936894DD24D3F8812C912C5401C1
:1004E0000F2EF1E3EF2EF0E2FF2EF02D09E510E2E2
:1004F00036C0C9DF89939993C017D107D1F764E15A
:1005000070E0C7014AD1F701268537858485958536
:10051000280F391F80899189280F391F8289938973
:10052000280F391F84899589280F391F8689978953
:10053000280F391F808D918D280F391F828D938D43
:10054000280F391F36952795369527953695279587
:10055000820E931EA11CB11CDA94DD2011F0E7017C
:10056000C8CFD501C401689412F8B595A7959795A1
:1005700087951694D1F7DF91CF911F910F91FF903E
:10058000EF90DF90BF90AF909F908F900895CF93A2
:10059000DF931F92CDB7DEB7C7D1E0E0F2E08681EE
:1005A00080FFFDCFE0E0F2E081E086838FB78983B2
:1005B000F894298184A195A12FBF0F90DF91CF914D
:1005C00008958F929F92AF92BF92DF92EF92FF9227
:1005D0000F931F93CF93DF936894DD24D3F8812C7E
:1005E000912C54010F2EF1E3EF2EF0E2FF2EF02DAF
:1005F00009E510E236C0CBDF89939993C017D10784
:10060000D1F764E170E0C701C8D0F70126853785CE
:1006100084859585280F391F80899189280F391F76
:1006200082899389280F391F84899589280F391F5A
:1006300086899789280F391F808D918D280F391F42
:10064000828D938D280F391F3695279536952795DE
:1006500036952795820E931EA11CB11CDA94DD20DD
:1006600011F0E701C8CFD501C401689412F8B5951F
:10067000A795979587951694D1F7DF91CF911F9104
:100680000F91FF90EF90DF90BF90AF909F908F9071
:100690000895CF93DF931F92CDB7DEB796D1E0E0F8
:1006A000F2E0868180FFFDCFE0E0F2E081E086832A
:1006B0008FB78983F894298184A195A12FBF0F90CA
:1006C000DF91CF9108958F929F92AF92BF92DF9268
:1006D000EF92FF920F931F93CF93DF936894DD24E3
:1006E000D3F8812C912C54010F2EF1E3EF2EF0E280
:1006F000FF2EF02D09E510E236C0CBDF89939993E8
:10070000C017D107D1F764E170E0C70146D0F70107
:100710002685378584859585280F391F808991899D
:10072000280F391F82899389280F391F8489958959
:10073000280F391F86899789280F391F808D918D41
:10074000280F391F828D938D280F391F36952795D5
:100750003695279536952795820E931EA11CB11CC0
:10076000DA94DD2011F0E701C8CFD501C401689407
:1007700012F8B595A795979587951694D1F7DF91BF
:10078000CF911F910F91FF90EF90DF90BF90AF90AE
:100790009F908F9008958FC1089561307105C1F4C5
:1007A0000895A191B191408151814A175B0730F4BE
:1007B000A083B183DF0112974D935C932F5F3F4F6E
:1007C0002617370771F7615071096130710541F0E3
:1007D00061307105C1F3E82FF92F21E030E0E1CF5E
:1007E0000895CF93DF93CDB7DEB76297CDBFDEBF5D
:1007F000BE016F5F7F4F80E092E00E94890C99817B
:100800008A818F7880638A8386E08C83892F817EBA
:1008100089831B82BE016F5F7F4F80E092E00E9460
:10082000370CAE01485F5F4F61E080E092E00E94CC
:10083000070D84E4898B81E0888788E189878A8530
:10084000807F8A87AE01485F5F4F61E080E092E081
:100850000E94C10C80E092E08CD78FB78A8BF8940D
:100860009A89E0E0F2E08081846080839FBF868186
:1008700080FFFDCF81E0809306026296CDBFDEBF90
:10088000DF91CF910895CF93DF93CDB7DEB7619716
:10089000CDBFDEBF80E092E097D7BE01655F7F4F9E
:1008A00080E092E00E94890C9B85997E8C858F78F0
:1008B00026E02E8798609B8781608C87BE01655FEC
:1008C0007F4F80E092E0D3D7AE014F5F5F4F61E092
:1008D00080E092E00E94070D81E18A8719821A82E6
:1008E0008B81807F8B83AE014F5F5F4F61E080E043
:1008F00092E00E94C10C80E092E03BD7E0E0F2E0A1
:10090000868180FFFDCF81E080930602E0E0F2E087
:10091000868180FFFDCF81E0809306026196CDBF86
:10092000DEBFDF91CF910895CF93DF93CDB7DEB7D0
:100930006197CDBFDEBF80E092E046D7BE01655F24
:100940007F4F80E092E0E5D78B85897E9C859F78FC
:1009500090639C8796E09E8788608B87BE01655F69
:100960007F4F80E092E083D7AE014F5F5F4F61E041
:1009700080E092E00E94070D81E18A8781E089830F
:1009800088E18A838B81807F8B83AE014F5F5F4FCD
:1009900061E080E092E0F5D780E092E0EAD6E0E026
:1009A000F2E0868180FFFDCF81E080930602E0E0E7
:1009B000F2E0868180FFFDCF81E0809306026196A0
:1009C000CDBFDEBFDF91CF910895CF93DF93CDB739
:1009D000DEB76197CDBFDEBF80E092E0F5D6BE0105
:1009E000655F7F4F80E092E094D78B85897E9C8500
:1009F0009F7890639C8796E09E8788608B87BE0176
:100A0000655F7F4F80E092E032D7AE014F5F5F4F6E
:100A100061E080E092E0FBD781E18A8781E0898311
:100A200088E28A838B81807F8B83AE014F5F5F4F2B
:100A300061E080E092E0A5D780E092E09AD6E0E025
:100A4000F2E0868180FFFDCF81E080930602E0E046
:100A5000F2E0868180FFFDCF81E0809306026196FF
:100A6000CDBFDEBFDF91CF910895CF93DF9300D04C
:100A700000D0CDB7DEB7BE016F5F7F4F80E093E05F
:100A80000E94190E88E08B8384E089838A818C79A7
:100A90008A831C82BE016F5F7F4F80E093E00E94DB
:100AA000C00D80E093E00E94700D2496CDBFDEBFA4
:100AB000DF91CF910895CF93DF931F92CDB7DEB72B
:100AC0009C01E0E0F3E0958190FFFDCF8FB7898333
:100AD000F894998120931803309319039FBFE0E0A5
:100AE000F3E0858180FFFDCF0F90DF91CF910895D6
:100AF000CF93DF931F92CDB7DEB7AB01BC019E0150
:100B00002F5F3F4F80E074D489810F90DF91CF91A8
:100B10000895CF92DF92EF92FF92CF936B017C0109
:100B2000E7DFC82FC701B6016F5F7F4F8F4F9F4F21
:100B3000DFDF2C2F30E0322F2227A901480F511D73
:100B4000CA01CF91FF90EF90DF90CF900895242FAE
:100B5000AB01BC0180E078C40895AB01BC0168948E
:100B600016F876956795579547951694D1F780E0D6
:100B7000D9C40895EF92FF920F931F93CF93DF9301
:100B8000CDB7DEB76497CDBFDEBF80915F208130E7
:100B900009F065C06DC080915F20813009F468C0A4
:100BA0008CDCF801819391938F01EE15FF0599F785
:100BB0002B853C8589859A85820F931F2D853E85DF
:100BC000820F931F2F853889820F931F96958795E3
:100BD000969587959C01215035402F3F3740C0F5B1
:100BE0008C011D5D000F111FB80180E090E091DFC6
:100BF0007C01B801705E80E090E08BDF60916B213A
:100C000070916C21E60EF71EB7017450072E000C90
:100C1000880B990B0E9439142091592030915A2049
:100C200040915B2050915C200E94C5140E940614E4
:100C30002091692130916A21620F731F6230710522
:100C400054F0CB016115704144F08FEF9FE005C077
:100C500082E090E002C082E090E09DDD09C02DDCE2
:100C60008E010D5F1F4F7E0145E1E40EF11C93CF15
:100C70006496CDBFDEBFDF91CF911F910F91FF90A2
:100C8000EF9008956F927F928F929F92AF92BF9252
:100C9000CF92DF92EF92FF920F931F93CF93DF9348
:100CA000CDB7DEB7C859D109CDBFDEBF80915F2077
:100CB000813009F019C12BC180915F20813009F486
:100CC00026C1FBDBF801819391938F01EE15FF059F
:100CD00099F768E070E0CE018B579F4F5EDDC757F4
:100CE000DF4F68807980C958D040C557DF4FC88032
:100CF000D980CB58D040C357DF4FA880B980CD589A
:100D0000D040C157DF4F88809980CF58D040809124
:100D10005F20813009F0DDC0FAC080915F20813012
:100D200009F4F5C0D0DCF801819391938F01EE15A1
:100D3000FF0599F760E270E0CE0101962EDD89A1F2
:100D40009AA14BA15CA160E070E0480F591F611DA2
:100D5000711D8DA19EA1480F591F611D711D8FA18D
:100D600098A5480F591F611D711DC601860D971D5D
:100D70008A0D9B1D880D991D96958795969587954B
:100D80008115F0E19F0714F08FEF9FE0759567954F
:100D9000579547957595679557954795411520E166
:100DA00052076105710524F04FEF5FE060E070E0ED
:100DB0008A01185040910620509107204F3F6FEF55
:100DC0005607C1F0E6E0F0E222813381420F531F63
:100DD00024813581420F531F26813781240F351F0F
:100DE000280F391FADECBCEC0E94501596958795E5
:100DF000969587959C01AC014D5D55404730574015
:100E000088F4E6E0F0E242815381408351834481DB
:100E1000558142835383468157814483558386831A
:100E2000978306C04FEF5FEF409306205093072053
:100E3000215035402F3F3740D0F49D5D6C01CC0CE4
:100E4000DD1CB6010D2C000C880B990B62DE7C01B9
:100E5000B601705E072E000C880B990B5ADE60916C
:100E60006B2170916C216E0D7F1D745002C060E08B
:100E700070E0600F711F072E000C880B990B0E9409
:100E800039142091592030915A2040915B20509183
:100E90005C200E94C5140E940614209169213091A3
:100EA0006A21620F731F623071053CF0CB0161153E
:100EB00070412CF08FEF9FE002C082E090E06BDC8D
:100EC0008BEA90EBA8E2B0E00197A109B109E1F744
:100ED0001EC0F9DB89839A838E010D5F1F4F7E014F
:100EE00041E4E40EF11C19CFE8DA8E010B571F4FD5
:100EF000F801819391938F010F2EF5E8EF2EF12CDD
:100F0000F02DEC0EFD1EF0E1EF0EF11CD5CEC85613
:100F1000DF4FCDBFDEBFDF91CF911F910F91FF90CB
:100F2000EF90DF90CF90BF90AF909F908F907F9089
:100F30006F900895CF92DF92EF92FF920F2EC12C07
:100F4000F0E5DF2EE12CF12CF02DC701B60105DE16
:100F500080E090E00196863D24E19207D9F780E891
:100F6000C80ED11CE11CF11CC11420E7D206E1041B
:100F7000F10459F760E070E480E090E0EEDD80E09D
:100F800090E00196863D24E19207D9F71092642003
:100F9000FF90EF90DF90CF900895CF92DF92EF9285
:100FA000FF920F931F93CF93DF9380915F20813047
:100FB00009F029C1E09163208E2F90E0FC01369763
:100FC000E431F10508F012C1EA5AFF4F0C944A15BA
:100FD00081E08093612073DAC82FD92FF2DAE2E63C
:100FE000F0E2D583C683978380871AC1409165203C
:100FF00050E0405B5F4F542F4427052E000C660BDA
:10100000770BE12CF12C8701F39427E630E280E0A6
:1010100067D206C1C2E6D0E24B8150E0405B5F4F31
:10102000542F4427052E000C660B770BE12CF12C76
:101030008701F39427E630E280E030D21A8266E03E
:1010400071E0CE0175D1DFC075DFEAC08091692003
:1010500081111CC060E070E480E090E07EDD80E003
:1010600090E00196863520ED9207D9F740E060E0E8
:1010700070E480E090E06BDD1092642010925D20BF
:1010800010925E2080E093E02BD5CAC08F3FC9F458
:1010900060E070E480E090E060DD80E090E0019648
:1010A000863530ED9307D9F74FEF60E070E480E0CC
:1010B00090E04DDD8FEF90E080935D2090935E2077
:1010C000AFC0813009F0ACC060E070E480E090E037
:1010D00044DD80E090E001968635A0ED9A07D9F7CF
:1010E00041E060E070E480E090E031DD1092642047
:1010F00081E090E080935D2090935E2080E093E01B
:10110000EFD48EC0C2E6D0E28FEF8E8360E070E451
:1011100080E090E0EDDC8F8383C0C7E6D0E20F2E45
:10112000C12CF8E4DF2EE12CF12CF02DC701B60123
:10113000DFDC8993BFEFCB1ADB0AEB0AFB0A27E05F
:10114000C21628E4D206E104F10481F769C0C7E6BB
:10115000D0E20F2EC12CFCE4DF2EE12CF12CF02D7F
:10116000C701B601C5DC89933FEFC31AD30AE30A6E
:10117000F30A87E0C8168CE4D806E104F10481F78D
:101180004FC0C7E6D0E203E710E20F2EC12CF4E413
:10119000DF2EE12CF12CF02DC701B601A9DC8993DB
:1011A000AFEFCA1ADA0AEA0AFA0AC017D107A1F79A
:1011B00037C060E074E480E090E0CFDCC7E6D0E2C6
:1011C00003E710E20F2EC12CF4E4DF2EE12CF12C0A
:1011D000F02D4991C701B601BADCBFEFCB1ADB0A8B
:1011E000EB0AFB0AC017D107A1F71AC0E2E6F0E24A
:1011F0008EE780838AEA8093672181E0828366E0BC
:1012000071E0CF0195D010925F2086E091E0E2E698
:10121000F0E2DF019C011D9221503040E1F708C04F
:101220001092642066E071E082E690E281D0EBCF1C
:10123000DF91CF911F910F91FF90EF90DF90CF90B2
:101240000895AF92BF92CF92DF92EF92FF920F93E9
:101250001F93CF93DF93CDB7DEB72E97CDBFDEBF01
:1012600087E0EDE1F0E2DE01119601900D928A95A2
:10127000E1F787E0E5E2F0E2DE01189601900D92D9
:101280008A95E1F760E078E480E090E066DC60E079
:101290007CE480E090E061DC8E010F5F1F4F5E0117
:1012A00088E0A80EB11C0F2EC12CF8E4DF2EE12C33
:1012B000F12CF02DF80141918F01C701B60147DCF7
:1012C000F50141915F01C701B6017C5F8F4F9F4FD0
:1012D0003EDCFFEFCF1ADF0AEF0AFF0A87E0C816ED
:1012E00088E4D806E104F10429F72E96CDBFDEBFCD
:1012F000DF91CF911F910F91FF90EF90DF90CF90F2
:10130000BF90AF900895CF93DF93EB0179D7888397
:10131000DF91CF9108956CC708958093C009E0ECE8
:10132000F9E0818186FFFDCF80E48093C1090895B3
:101330000F931F93CF93DF936115710549F08C01D3
:10134000EC01060F171F8991E8DFC017D107D9F705
:10135000DF91CF911F910F910895CF93DF93CDB778
:10136000DEB72797CDBFDEBF60E170E280EC99E089
:101370000E94BD12E0ECF9E082818F7C8061828363
:10138000E0937921F0937A218BE899E0809377219B
:101390009093782183E899E080937521909376214A
:1013A00083E08D831E821F8280E09BE4A0E0B0E09A
:1013B00089839A83AB83BC8360E184E032D1BE0130
:1013C0006F5F7F4F80EC99E00E941B1264E67BE028
:1013D0008DE79BE00E9468152796CDBFDEBFDF91A9
:1013E000CF910895833010F480E0089588EF089538
:1013F000CF92DF92EF92FF92CF93DF93E82FDB0142
:10140000CA01E901E13071F018F0E23089F014C04E
:101410006A017B01EE24FF24EBBEF601C790C8826F
:1014200080E00BC041E050E0B90157D580E005C035
:101430002FD4888380E001C088EFDF91CF91FF90A7
:10144000EF90DF90CF900895CF93DF931F92CDB7A9
:10145000DEB7382FDB01CA012983313069F018F07B
:10146000323099F016C021E041E050E0BE016F5FDC
:101470007F4FFAD580E00EC021E041E050E0BE0190
:101480006F5F7F4F48D580E005C0698132D480E02E
:1014900001C088EF0F90DF91CF910895EF92FF92F6
:1014A0000F931F93E82FDB01CA01E13049F018F0D8
:1014B000E23059F00FC0A701B901F4D480E00BC0AD
:1014C000A701B9010AD580E006C0A701B901EAD396
:1014D00080E001C088EF1F910F91FF90EF90089579
:1014E000EF92FF920F931F93E82FDB01CA01B9011E
:1014F000E13049F018F0E23059F00EC021E0A701C8
:10150000B3D580E00AC021E0A70105D580E005C081
:10151000A70150D480E001C088EF1F910F91FF9088
:10152000EF9008958130A1F118F08230F1F141C0BF
:101530004F3F51056105710509F090F45695542F00
:10154000442757954795E0ECF1E087858823ECF335
:10155000BA0180E090E042E20E94004080E00895FD
:101560004F3181E058076105710528F55695542FD4
:10157000442757954795E0ECF1E087858823ECF305
:10158000BA0180E090E04AE20E94004080E00895C5
:10159000E0ECF1E087858823ECF348E160E070E05F
:1015A000CB010E94004080E00895842F73D480E036
:1015B000089588EF089588EF0895CF93DF9300D0C2
:1015C000CDB7DEB78FEF809370008093710080936A
:1015D00072008093730080937400809375008093F1
:1015E00076008FB78A83F8949A81E0E5F0E08081F5
:1015F000826080839FBF818181FFFDCF61E080E4B5
:1016000090E04BD28FB78983F8949981E0E5F0E0C0
:1016100080818E7F80839FBF0F900F90DF91CF914D
:101620000895CF93DF931F92CDB7DEB79FB799830D
:10163000F8949981E82FF0E0E059FF4F60958081A0
:10164000682360839FBF0F90DF91CF910895CF9360
:10165000DF931F92CDB7DEB79FB79983F894998136
:10166000E82FF0E0E059FF4F8081682B60839FBF37
:101670000F90DF91CF910895CF93DF93FC01709687
:1016800020E030E0C62FD0E0DE01022E02C0B5958A
:10169000A7950A94E2F7A0FD50832F5F3F4F319644
:1016A0002830310589F740FF0AC041FF03C0FC0123
:1016B000658302C0FC016683FC01618302C0FC01FA
:1016C0006283DF91CF910895CF93DF931F92CDB7BF
:1016D000DEB78091792190917A21E0917521F09186
:1016E0007621BE016F5F7F4F09958981082E000C1E
:1016F000990B0F90DF91CF910895682F80917921F8
:1017000090917A21E0917721F091782109959923A0
:101710001CF081E090E008958FEF9FEF089543E083
:1017200050E068E080E696E0A7DF40E050E064E04B
:1017300080E696E0A1CF08958115924059F48091FA
:101740002E2091E0980F90932E20811103C062E02B
:1017500081E067CF08958115924051F480912E2049
:10176000815080932E20811103C062E081E06FCF11
:101770000895EF92FF921F93CF93DF9300D0CDB7E0
:10178000DEB77C018FB78A83F8941A81C701D4DF52
:10179000F7018081816080831FBF809170218F3F1E
:1017A00009F4FFCF8FB78983F8949981EFE6F1E2CE
:1017B00081818F5F81839FBF0F900F90DF91CF91C9
:1017C0001F91FF90EF9008951F93CF93DF9300D068
:1017D000CDB7DEB72FB72A83F8941A81FC01208198
:1017E0002E7F2083B8DF1FBF80917021811101C03F
:1017F000FFCF8FB78983F8949981EFE6F1E2818179
:10180000815081839FBF0F900F90DF91CF911F91E7
:1018100008951F920F920FB60F9211242F933F93AA
:101820004F935F936F937F938F939F93AF93BF93E8
:10183000EF93FF934091240250912502E0917B2188
:10184000F0917C2161E080E092E00995FF91EF91B9
:10185000BF91AF919F918F917F916F915F914F91C8
:101860003F912F910F900FBE0F901F901895CF9220
:10187000DF92EF92FF920F931F93CF93DF931F920C
:10188000CDB7DEB7811522E09207C9F57B018C0147
:1018900061E270E082E0A2D4C82ED12C60E270E058
:1018A00082E09CD4DC2CCC24C82A8FB78983F8949E
:1018B000D980C80141DFF8018081817092E0908376
:1018C000C486F70124813581F801208F318FF7011B
:1018D0009181F8019283F7019381F8019483F701D4
:1018E0009281F8019383F7019081F8019183F701C8
:1018F0009681F80190878083C8012DDFDFBE0F90AD
:10190000DF91CF911F910F91FF90EF90DF90CF90DB
:101910000895DF92EF92FF920F931F93CF93DF937F
:101920001F92CDB7DEB78C017B018FB78983F89406
:10193000D980C80101DFF801808D918DF701848382
:101940009583F8018281F7018183F8018481F70191
:101950008383F8018381F7018283F8018181F70194
:101960008083F8018085F7018683C801F4DEDFBE3D
:101970000F90DF91CF911F910F91FF90EF90DF902B
:101980000895DF92EF92FF920F931F93CF93DF930F
:101990001F92CDB7DEB78C017A018FB78983F89497
:1019A000D980C801C9DEF7018081F80180A3F70161
:1019B0008281F80182A3F7018181F80181A3F701F7
:1019C0008381F80186A3F7018481F80187A3F701D9
:1019D0008581F80180A7F7018681F80181A7F701C9
:1019E0008781F80182A7F7018085F80183A7F701B5
:1019F0008185F80184A7C801AEDEDFBE0F90DF91BC
:101A0000CF911F910F91FF90EF90DF900895DF929B
:101A1000EF92FF920F931F93CF93DF931F92CDB757
:101A2000DEB78C017A018FB78983F894D980C80119
:101A300083DEF80180A1F7018083F80182A1F7011C
:101A40008283F80181A1F7018183F80186A1F70162
:101A50008383F80187A1F7018483F80180A5F7014A
:101A60008583F80181A5F7018683F80182A5F70136
:101A70008783F80183A5F7018087F80184A5F70122
:101A80008187C80168DEDFBE0F90DF91CF911F9183
:101A90000F91FF90EF90DF9008951BBEFC0128EDA1
:101AA00024BF608308958115934059F480912F20BD
:101AB00091E0980F90932F20811103C064E081E0A2
:101AC000B0CD08958115934051F480912F2081501D
:101AD00080932F20811103C064E081E0B8CD089588
:101AE000EF92FF921F93CF93DF9300D0CDB7DEB775
:101AF0002FB72A83F8941A81209170212F3F09F47F
:101B0000FFCF7C018FB78983F8949981EFE6F1E2EA
:101B100081818F5F81839FBFC701C5DFF70180810E
:101B2000816080831FBF0F900F90DF91CF911F9135
:101B3000FF90EF9008951F93CF93DF9300D0CDB720
:101B4000DEB72FB72A83F8941A81FC0120812E7FFB
:101B50002083B8DF80917021811101C0FFCF8FB742
:101B60008983F8949981EFE6F1E281818150818344
:101B70009FBF1FBF0F900F90DF91CF911F910895CE
:101B80009F92AF92BF92CF92DF92EF92FF920F930C
:101B90001F93CF93DF931F92CDB7DEB7811523E05C
:101BA000920709F039C07B018C0161E370E082E0AB
:101BB00015D3982E60E370E082E010D3A82E65E381
:101BC00070E082E00BD3B82E64E370E082E006D3CD
:101BD000C82E8FB78983F894D980C80164DFF801D3
:101BE00090811082F7018181F8018183F701828160
:101BF000F8018283F7018381F80183839086A186AF
:101C0000B286C386892F8170F7019081892BF801F4
:101C10008083C80157DFDFBE0F90DF91CF911F9106
:101C20000F91FF90EF90DF90CF90BF90AF909F907B
:101C30000895DF92EF92FF920F931F93CF93DF935C
:101C40001F92CDB7DEB78C017B018FB78983F894E3
:101C5000D980C80128DFF80180818E7FF701808359
:101C6000F8018181F7018183F8018281F701828384
:101C7000F8018381F7018383C80124DFDFBE0F9061
:101C8000DF91CF911F910F91FF90EF90DF9008951A
:101C90009C01E0ECF1E097859923ECF3F901F05F0A
:101CA000808108959C01DB01E0ECF1E097859923A8
:101CB000ECF3B901705FCD0102C70895E0ECF1E0EB
:101CC00087858823ECF38091CF0181FF07C086E3ED
:101CD0008093CA0161E08BEC91E0DFCE0895E0ECE7
:101CE000F1E097859923ECF3E82FF0E0F05F608353
:101CF0000895FF920F931F93CF93DF93182FF92E20
:101D0000C62F0091CA01DADFE0ECF1E0278522233B
:101D1000ECF36C2F812FE3DFC0ECD1E01A82F98263
:101D2000188385E38A8761E08BEC91E0B6DE0A8751
:101D3000DF91CF911F910F91FF900895EF92FF9245
:101D40000F931F93CF93DF938C01E0ECF1E0878535
:101D50008823ECF3780180E2E80EF11CE8018C2F77
:101D6000801B6991BCDFCE15DF05C9F7DF91CF91EC
:101D70001F910F91FF90EF9008951F93CF93DF93E2
:101D8000E0ECF1E097859923ECF320E2829FC0011B
:101D90001124C0ECD1E01A82998388831A8585E3E7
:101DA0008A8761E08BEC91E078DE1A87DF91CF9132
:101DB0001F910895CF92DF92EF92FF920F931F939E
:101DC000CF93DF93EC017B018A01452B51F1CE01CA
:101DD0008F719927892BB1F40032110598F0C70152
:101DE000ADDFCE0196958795929582958F70892764
:101DF0009F708927C2DFA09680E2E80EF11C005296
:101E000011090CC06E01EFEFCE1ADE0AF7016191E5
:101E10007F01CE016EDF01501109E60101151105A8
:101E2000B1F6DF91CF911F910F91FF90EF90DF906E
:101E3000CF900895CF93DF93D82F40DFE0ECF1E00F
:101E400087858823ECF3C0E06D2F8C2F48DFCF5FB0
:101E5000C032D1F7DF91CF9108951F93CF93DF93D5
:101E6000E0ECF1E097859923ECF320E2829FC0013A
:101E70001124C0ECD1E01A82998388831A8582E309
:101E80008A8761E08BEC91E008DE1A87DF91CF91C1
:101E90001F910895CF93C82F8FEFCCDF8C2FDDDFFC
:101EA000CF9108950F931F93DB01E0ECF1E02785BC
:101EB0002223ECF34115510569F04A0F5B1F8C0199
:101EC00020E030E02BBFF80107910D930196A41795
:101ED000B507A9F71F910F910895EF92FF920F9305
:101EE0001F93CF93DF937B01EA018C010F771127BA
:101EF000209751F0B80181E071D1F70181937F0102
:101F00000F5F1F4F2197B1F7DF91CF911F910F9175
:101F1000FF90EF9008952F923F924F925F926F92B1
:101F20007F928F929F92AF92BF92CF92DF92EF9269
:101F3000FF920F931F93CF93DF9300D000D0CDB7C4
:101F4000DEB75C016B837C837A01322E452B09F06E
:101F50004EC064C06201332079F0B20181E03ED10D
:101F60008983B80181E03AD18A8389819A81019677
:101F700029F02224239402C089829A82E114F10478
:101F800009F1AC14BD0409F055C081E0E81AF1086C
:101F9000EB81FC818191EB83FC838983E114F10463
:101FA00021F4FFEFAF1ABF0A0DC021E0E21AF108D9
:101FB000560182E0A80EB11CEB81FC818191EB837C
:101FC000FC838A8349815A81C301B2010E940F4078
:101FD000F2E04F0E511C611C711C0E5F1F4F013847
:101FE000110509F0B7CFE114F10429F40AC0212C3E
:101FF00088248A94982C01E010E0412C512C320165
:10200000A9CF222059F0E0ECF1E087858823ECF39A
:1020100048E160E070E0CB010E940040E0ECF1E0BC
:1020200087858823ECF34AE160E070E0CB010E94F1
:10203000004004C0A016B10629F6B7CF2496CDBF44
:10204000DEBFDF91CF911F910F91FF90EF90DF9056
:10205000CF90BF90AF909F908F907F906F905F9048
:102060004F903F902F9008952F923F924F925F9202
:102070006F927F928F929F92AF92BF92CF92DF9298
:10208000EF92FF920F931F93CF93DF9300D000D076
:10209000CDB7DEB75C013B017A01322E8078452B4B
:1020A00009F486C08B839C830F2EF0EC4F2E5524B1
:1020B0005394F02D88248A94982CF20187858823E4
:1020C000E4F3CB80DC80F1E8CF0ED11C0B811C81C6
:1020D0000F5F1F4F212CB80161507109332071F03F
:1020E000CB01A0E0B0E0ABBFFC0187919691898362
:1020F0009A83019629F02224239402C089829A822D
:10210000E114F104D9F06A157B0509F04DC031E006
:10211000E31AF108F30181913F018983E114F1048D
:1021200011F458010BC0F1E0EF1AF10858012FEF3C
:10213000A21AB20AF30181913F018A8349815A812F
:1021400080E090E00E940F400E5F1F4F0C151D05B0
:1021500009F0C1CF8701222079F0F2018785882319
:10216000E4F32B813C81C901A0E0B0E045E2BC0171
:10217000CD010E9400400EC0F20187858823E4F360
:102180002B813C81C901A0E0B0E044E2BC01CD015B
:102190000E9400408B819C8180589F4F8B839C8341
:1021A000012B09F08ACF04C00A151B0539F6BBCFF5
:1021B0002496CDBFDEBFDF91CF911F910F91FF908D
:1021C000EF90DF90CF90BF90AF909F908F907F90D7
:1021D0006F905F904F903F902F9008954091CA016B
:1021E000E62FF72F8093CA0184914093CA01089586
:1021F000FC01918195FFFDCF608380E090E0089520
:10220000FC0191819923ECF7808108952F923F92F0
:102210004F925F926F927F928F929F92AF92BF92F6
:10222000CF92DF92EF92FF920F931F93CF931C01F7
:102230002A013B0148015901D901C801689412F8EB
:10224000B695A795979587951694D1F7B901A801EA
:10225000032E36E176956795579547953A95D1F7D0
:10226000302DF101238122FD08C0B695A7959795E1
:102270008795769567955795479584159505A60595
:10228000B70508F4AAC0441655066606770608F492
:10229000A6C0F101838182FD04C0440C551C661C5C
:1022A000771CC501B401A3019201D2D32F3F3105A0
:1022B0004105510508F495C0C12CD12C7601CA9472
:1022C000C9EF05C02C153D054E055F0568F0CC0C27
:1022D000DD1CEE1CFF1CCD3F14F46894C0F8CF5FEA
:1022E000C73081F78C2F54C08C2FCC230CF050C0FA
:1022F000D301C201880F991FAA1FBB1F880F991F06
:10230000AA1FBB1F880F991FAA1FBB1F850174013D
:10231000E81AF90A0A0B1B0BD801C701CE3FECF4EF
:102320002DEF3FEF2C1B3109C7FD339504C0880FFB
:10233000991FAA1FBB1F2A95D2F773016201F69459
:10234000E794D794C794BC01CD016C0D7D1D8E1D03
:102350009F1DA30192017CD336C023E02C0F830183
:10236000720104C0EE0CFF1C001F111F2A95D2F74A
:10237000A801970167017801F694E794D794C79470
:10238000BC01CD016C0D7D1D8E1D9F1D61D31BC039
:102390008D5FA301920104C0220F331F441F551FFC
:1023A0008A95D2F7DA01C901B695A79597958795D1
:1023B000BC01CD01680D791D8A1D9B1D49D321509B
:1023C000310941095109832F8F70C295C07FC82BF5
:1023D000F101C783268381E01CC080E01AC080E041
:1023E00018C0D301C201880F991FAA1FBB1F880FF5
:1023F000991FAA1FBB1F880F991FAA1FBB1F85010A
:102400007401E81AF90A0A0B1B0BD801C701C9EFBE
:1024100087CFCF911F910F91FF90EF90DF90CF90DA
:10242000BF90AF909F908F907F906F905F904F90F4
:102430003F902F9008950F931F93CF93DF93EC015C
:102440008B01892B09F477C0C11584E0D80721F4EA
:1024500064E080E0E6D86FC0C038E1E0DE0721F438
:1024600062E080E0DED867C0C115F1E0DF0721F44B
:1024700061E080E0D6D85FC0C03883E0D80721F49F
:1024800061E081E0CED857C0C115E2E0DE0721F45B
:1024900062E081E0C6D84FC0C115F3E0DF0721F448
:1024A00064E081E0BED847C0C11588E0D80721F4B8
:1024B00061E083E0B6D83FC0C034E8E0DE0721F435
:1024C00062E083E0AED837C0C034F9E0DF0721F422
:1024D00062E084E0A6D82FC0C03B88E0D80721F492
:1024E00064E083E09ED827C0C03EE8E0DE0721F428
:1024F00068E083E096D81FC0C03CF8E0DF0721F415
:1025000060E183E08ED817C0C03C89E0D80721F491
:1025100060E184E086D80FC0C038E4E0DE0721F433
:1025200060E483E07ED807C0C036F4E0DF0719F42A
:1025300060E880E076D88C818F738C83F801948179
:102540008581892B9681911198E0892B8C83F801E4
:10255000408151816281738100E018E428EE31E00E
:10256000CE0154DE9B8198609B839B8190619B830D
:10257000DF91CF911F910F910895CF92DF92EF924B
:10258000FF920F931F93CF93DF931F92CDB7DEB7C8
:102590007C016B01009709F487C08115944021F4F8
:1025A00064E080E03ED880C080E8E81681E0F8066C
:1025B00021F462E080E035D877C0E114E1E0FE0666
:1025C00021F461E080E02DD86FC0F0E8EF16F3E071
:1025D000FF0621F461E081E024D866C0E11422E026
:1025E000F20621F462E081E01CD85EC0E11483E0D1
:1025F000F80621F464E081E014D856C0E114E8E064
:10260000FE0621F461E083E00CD84EC0F0E4EF1642
:10261000F8E0FF0621F462E083E003D845C020E43F
:10262000E21629E0F20629F462E084E00E94110B30
:102630003BC080EBE81688E0F80629F464E083E00C
:102640000E94110B31C0E0EEEE16E8E0FE0629F420
:1026500068E083E00E94110B27C0F0ECEF16F8E071
:10266000FF0629F460E183E00E94110B1DC020ECFD
:10267000E21629E0F20629F460E184E00E94110BE1
:1026800013C080E8E81684E0F80629F460E483E0EB
:102690000E94110B09C0E0E6EE16E4E0FE0621F40C
:1026A00060E880E00E94110BF70184818F738483BE
:1026B000F60194818581892B9681911198E0892B6F
:1026C000F7018483F601408151816281738100E0CA
:1026D00018E428EE31E0C70199DD182FF601948542
:1026E000992361F02385F70185818F7C858385811E
:1026F000837F85838581922B982B9583F601878133
:10270000882329F0F70183818064838304C0F70163
:1027100083818F7B8383F6018085882329F0F701ED
:1027200083818068838304C0F70183818F778383EB
:10273000F6018285882309F452C060E880E00E9497
:10274000110B809170218F3F09F4FFCF8FB78983E0
:10275000F8949981EFE6F1E281818F5F81839FBFD9
:1027600081E080933020F0ECEF16F8E0FF0641F4B2
:10277000E0E6F4E080818F7C8083808180830DC0DF
:1027800020ECE21629E0F20641F4E0E6F4E0808174
:102790008F7C8083808180618083F6018285813196
:1027A00048F0E0E6F4E084818F788483848180655A
:1027B000848308C0E0E6F4E084818F788483848198
:1027C00080668483F60182858150809369048185C7
:1027D000F70195819C7F95839581892B8583F601EF
:1027E0008085811104C0F701838188608383F701AC
:1027F000938190619383812F0F90DF91CF911F91EF
:102800000F91FF90EF90DF90CF90089504D06894DF
:10281000B111B5C0089598D088F09F5790F0B92FA6
:102820009927B751A0F0D1F0660F771F881F991F25
:102830001AF0BA95C9F712C0B13081F09FD0B1E05B
:1028400008959CC0672F782F8827B85F39F0B93F6B
:10285000CCF3869577956795B395D9F73EF4909527
:102860008095709561957F4F8F4F9F4F0895E894A5
:1028700009C097FB3EF490958095709561957F4FC8
:102880008F4F9F4F9923A9F0F92F96E9BB27939576
:10289000F695879577956795B795F111F8CFFAF486
:1028A000BB0F11F460FF1BC06F5F7F4F8F4F9F4FB7
:1028B00016C0882311F096E911C0772321F09EE815
:1028C000872F762F05C0662371F096E8862F70E07B
:1028D00060E02AF09A95660F771F881FDAF7880F55
:1028E0009695879597F9089597F99F6780E870E026
:1028F00060E008959FEF80EC089500240A94161676
:10290000170618060906089500240A9412161306DD
:10291000140605060895092E0394000C11F488236B
:1029200052F0BB0F40F4BF2B11F460FF04C06F5F87
:102930007F4F8F4F9F4F089557FD9058440F551F5D
:1029400059F05F3F71F04795880F97FB991F61F031
:102950009F3F79F087950895121613061406551FA8
:10296000F2CF4695F1DF08C0161617061806991F14
:10297000F1CF86957105610508940895E894BB2709
:1029800066277727CB0197F908950BD0C4CFB5DF21
:1029900028F0BADF18F0952309F0A6CFABCF1124A9
:1029A000EECFCADFA0F3959FD1F3950F50E0551FEE
:1029B000629FF001729FBB27F00DB11D639FAA2794
:1029C000F00DB11DAA1F649F6627B00DA11D661FE3
:1029D000829F2227B00DA11D621F739FB00DA11D04
:1029E000621F839FA00D611D221F749F3327A00DBE
:1029F000611D231F849F600D211D822F762F6A2F5A
:102A000011249F5750408AF0E1F088234AF0EE0FDE
:102A1000FF1FBB1F661F771F881F91505040A9F7EB
:102A20009E3F510570F060CFAACF5F3FECF3983E18
:102A3000DCF3869577956795B795F795E7959F5F52
:102A4000C1F7FE2B880F911D9695879597F90895EC
:102A5000A1E21A2EAA1BBB1BFD010DC0AA1FBB1FA2
:102A6000EE1FFF1FA217B307E407F50720F0A21B14
:102A7000B30BE40BF50B661F771F881F991F1A9481
:102A800069F760957095809590959B01AC01BD01AB
:102A9000CF010895EE0FFF1F0590F491E02D0994EA
:102AA000A29FB001B39FC001A39F700D811D11248F
:102AB000911DB29F700D811D1124911D0895FB0180
:102AC000DC0102C001900D9241505040D8F70895AA
:102AD0000F931F93CF93DF93009731F46115710526
:102AE00019F480E090E039C08B01EC016EE070E0F9
:102AF00081E090E037D0FC01892B99F380E8838353
:102B00000115110571F00287138781E88383809195
:102B10007D2190917E21892B21F4E0937D21F093FA
:102B20007E212097C9F0C087D1878381826083830B
:102B300080917F2190918021892B71F4E0937F21F6
:102B4000F09380218091812190918221892B21F421
:102B5000E0938121F0938221CF01DF91CF911F91EA
:102B60000F9108950F931F93CF93DF93869F80015A
:102B7000879F100D969F100D1124C8010DD0EC01F8
:102B8000009721F0A80160E070E033D1CE01DF9121
:102B9000CF911F910F910895CF93DF9382309105CC
:102BA00010F482E090E0E0918521F091862120E010
:102BB00030E0C0E0D0E0309711F1408151814817FA
:102BC0005907C0F04817590761F482819381209713
:102BD00019F08A839B832BC0809385219093862153
:102BE00026C02115310519F04217530718F49A0130
:102BF000BE01DF01EF010280F381E02DDCCF211562
:102C0000310509F1281B390B2430310590F4129657
:102C10008D919C9113976115710521F0FB018283C1
:102C2000938304C08093852190938621FD01329681
:102C300044C0FD01E20FF31F8193919322503109AB
:102C40002D933C933AC02091832130918421232BF2
:102C500041F420910220309103202093832130936E
:102C6000842120910020309101202115310541F46B
:102C70002DB73EB74091042050910520241B350B01
:102C8000E0918321F0918421E217F307A0F42E1B39
:102C90003F0B2817390778F0AC014E5F5F4F2417C0
:102CA000350748F04E0F5F1F4093832150938421D6
:102CB0008193919302C0E0E0F0E0CF01DF91CF91EA
:102CC00008950F931F93CF93DF93009709F48CC05F
:102CD000FC01329712821382009185211091862186
:102CE0000115110581F420813181820F931F2091FC
:102CF0008321309184212817390779F5E0938321C6
:102D0000F093842171C0D80140E050E0AE17BF07B6
:102D100050F412962D913C911397AD012115310578
:102D200009F1D901F3CF9D01DA0122833383608158
:102D30007181860F971F8217930769F4EC01288130
:102D40003981260F371F2E5F3F4F208331838A81C1
:102D50009B8182839383452B29F4E0938521F09313
:102D6000862142C01296ED93FC931397ED01499191
:102D700059919E01240F351FE217F30771F48081EA
:102D80009181840F951F02968D939C931197828158
:102D9000938112968D939C931397E0E0F0E0D80115
:102DA00012968D919C911397009719F0F8018C0160
:102DB000F6CF8D919C9198012E5F3F4F820F931F0C
:102DC00020918321309184212817390769F43097A5
:102DD00029F4109285211092862102C0128213825A
:102DE0000093832110938421DF91CF911F910F9144
:102DF0000895DC0101C06D9341505040E0F7089503
:042E0000F894FFCF74
:102E0400000087212000FFFFFFFFFFFFFFFFFFFF00
:102E1400004B000003000001000000000043533198
:0E2E240035323158005A2E30302E3035000035
:108000009BB78BBFFB018091CA014093CA017DE9F8
:1080100070933400E8958093CA019BBF0895209126
:10802000CF0127FDFCCF9BB78BBFFB018091CA011D
:1080300023E22093CA010A01E89511248093CA0122
:048040009BBF089545
:00000001FF
