S017000055534152545F4558414D504C4532312E73726563B0
S113000055C0000070C000006EC000006CC000004D
S11300106AC0000068C0000066C0000064C0000040
S113002062C0000060C000005EC000005CC0000050
S11300305AC0000058C0000056C0000054C0000060
S113004052C0000050C000004EC000004CC0000070
S11300504AC0000048C0000046C0000044C0000080
S113006042C0000040C000003EC000003CC0000090
S11300703AC0000038C0000036C0000034C00000A0
S113008032C0000030C00000D4C100002CC0000009
S11300902AC0000028C0000026C0000024C00000C0
S11300A00C94540920C000001EC0000011241FBE7F
S11300B0CFEFCDBFDFE2DEBF10E2A0E0B0E2E2EDC1
S11300C0F6E202C005900D92A836B107D9F720E2F6
S11300D0A8E6B0E201C01D92AF38B207E1F70E9472
S11300E085090C9467138CCF833010F480E0089555
S11300F088EF0895CF93DF931F92CDB7DEB7382FE3
S1130100DB01CA012983313069F018F0323099F0EB
S113011016C021E041E050E0BE016F5F7F4FD2D4B2
S113012080E00EC021E041E050E0BE016F5F7F4FF0
S113013020D480E005C06981BED380E001C088EF8F
S11301400F90DF91CF910895EF92FF920F931F9339
S1130150E82FDB01CA01E13049F018F0E23059F030
S11301600FC0A701B901CCD380E00BC0A701B9012E
S1130170E2D380E006C0A701B90175D380E001C0D5
S113018088EF1F910F91FF90EF900895CF93DF9325
S113019000D0CDB7DEB78FEF8093700080937100ED
S11301A08093720080937300809374008093750031
S11301B0809376008FB78983F8949981E0E5F0E025
S11301C08081806280838081806480839FBF8181FD
S11301D085FFFDCF65E080E490E06FD28FB78A831E
S11301E0F8949A81E0E5F0E080818E7F80839FBF60
S11301F00F900F90DF91CF910895CF93DF931F92CB
S1130200CDB7DEB79FB79983F8949981E82FF0E0D2
S1130210E059FF4F60958081682360839FBF0F90F2
S1130220DF91CF910895CF93DF931F92CDB7DEB7BF
S11302309FB79983F8949981E82FF0E0E059FF4F34
S11302408081682B60839FBF0F90DF91CF910895C9
S1130250CF93DF93FC01709620E030E0C62FD0E00E
S1130260DE01022E02C0B595A7950A94E2F7A0FD1F
S113027050832F5F3F4F31962830310589F740FF77
S11302800AC041FF03C0FC01658302C0FC01668310
S1130290FC01618302C0FC016283DF91CF91089568
S11302A0CF93DF931F92CDB7DEB7809181209091D9
S11302B08220E0917D20F0917E20BE016F5F7F4F10
S11302C009958981082E000C990B0F90DF91CF912D
S11302D00895682F8091812090918220E0917F2061
S11302E0F0918020099599231CF081E090E0089515
S11302F08FEF9FEF089541E050E060E180E696E0E3
S1130300A7DF43E050E060E280E696E0A1DF40E052
S11303105BE161E080E696E09BDF40E05BE164E066
S113032080E696E095DF40E05BE160E280E096E005
S11303308FDF43E050E062E080EE97E089DF43E046
S113034050E068E080E696E083DF40E050E064E05F
S113035080E696E07DCF08958115924059F480910E
S1130360682091E0980F90936820811103C062E0A7
S113037081E043CF08958115924051F48091682023
S1130380815080936820811103C062E081E04BCFEB
S11303900895EF92FF921F93CF93DF9300D0CDB7D0
S11303A0DEB77C018FB78A83F8941A81C701D4DF42
S11303B0F7018081816080831FBF809178208F3F07
S11303C009F4FFCF8FB78983F8949981E7E7F0E2C6
S11303D081818F5F81839FBF0F900F90DF91CF91B9
S11303E01F91FF90EF9008951F93CF93DF9300D058
S11303F0CDB7DEB72FB72A83F8941A81FC01208188
S11304002E7F2083B8DF1FBF80917820811101C027
S1130410FFCF8FB78983F8949981E7E7F0E2818170
S1130420815081839FBF0F900F90DF91CF911F91D7
S113043008951F920F920FB60F9211242F933F939A
S11304404F935F936F937F938F939F93AF93BF93D8
S1130450EF93FF934091240250912502E091832071
S1130460F091842061E080E092E00995FF91EF91A2
S1130470BF91AF919F918F917F916F915F914F91B8
S11304803F912F910F900FBE0F901F901895CF9210
S1130490DF92EF92FF920F931F93CF93DF931F92FC
S11304A0CDB7DEB7811522E09207C9F57B018C0137
S11304B061E270E082E0C0D3C82ED12C60E270E02B
S11304C082E0BAD3DC2CCC24C82A8FB78983F89471
S11304D0D980C80141DFF8018081817092E0908366
S11304E0C486F70124813581F801208F318FF7010B
S11304F09181F8019283F7019381F8019483F701C4
S11305009281F8019383F7019081F8019183F701B7
S11305109681F80190878083C8012DDFDFBE0F909C
S1130520DF91CF911F910F91FF90EF90DF90CF90CB
S11305300895DF92EF92FF920F931F93CF93DF936F
S11305401F92CDB7DEB78C017B018FB78983F894F6
S1130550D980C80101DFF801808D918DF701848372
S11305609583F8018281F7018183F8018481F70181
S11305708383F8018381F7018283F8018181F70184
S11305808083F8018085F7018683C801F4DEDFBE2D
S11305900F90DF91CF911F910F91FF90EF90DF901B
S11305A00895DF92EF92FF920F931F93CF93DF93FF
S11305B01F92CDB7DEB78C017A018FB78983F89487
S11305C0D980C801C9DEF7018081F80180A3F70151
S11305D08281F80182A3F7018181F80181A3F701E7
S11305E08381F80186A3F7018481F80187A3F701C9
S11305F08581F80180A7F7018681F80181A7F701B9
S11306008781F80182A7F7018085F80183A7F701A4
S11306108185F80184A7C801AEDEDFBE0F90DF91AB
S1130620CF911F910F91FF90EF90DF900895DF928B
S1130630EF92FF920F931F93CF93DF931F92CDB747
S1130640DEB78C017A018FB78983F894D980C80109
S113065083DEF80180A1F7018083F80182A1F7010C
S11306608283F80181A1F7018183F80186A1F70152
S11306708383F80187A1F7018483F80180A5F7013A
S11306808583F80181A5F7018683F80182A5F70126
S11306908783F80183A5F7018087F80184A5F70112
S11306A08187C80168DEDFBE0F90DF91CF911F9173
S11306B00F91FF90EF90DF9008951BBEFC0128ED91
S11306C024BF608308958115934059F48091692073
S11306D091E0980F90936920811103C064E081E058
S11306E08CCD08958115934051F4809169208150F7
S11306F080936920811103C064E081E094CD089562
S1130700EF92FF921F93CF93DF9300D0CDB7DEB764
S11307102FB72A83F8941A81209178202F3F09F467
S1130720FFCF7C018FB78983F8949981E7E7F0E2E2
S113073081818F5F81839FBFC701C5DFF7018081FE
S1130740816080831FBF0F900F90DF91CF911F9125
S1130750FF90EF9008959F92AF92BF92CF92DF9255
S1130760EF92FF920F931F93CF93DF931F92CDB716
S1130770DEB7811523E0920709F039C07B018C01B3
S113078061E370E082E058D2982E60E370E082E08A
S113079053D2A82E65E370E082E04ED2B82E64E313
S11307A070E082E049D2C82E8FB78983F894D9804B
S11307B0C80189DFF80190811082F7018181F80175
S11307C08183F7018281F8018283F7018381F80133
S11307D083839086A186B286C386892F8170F701B0
S11307E09081892BF8018083C8017CDFDFBE0F90E4
S11307F0DF91CF911F910F91FF90EF90DF90CF90F9
S1130800BF90AF909F900895DF92EF92FF920F9365
S11308101F93CF93DF931F92CDB7DEB78C017B017B
S11308208FB78983F894D980C8014DDFF80180819E
S11308308E7FF7018083F8018181F7018183F801BC
S11308408281F7018283F8018381F7018383C801E0
S113085049DFDFBE0F90DF91CF911F910F91FF9081
S1130860EF90DF9008959C01DB01E0ECF1E09785C7
S11308709923ECF3B901705FCD010C940E0F089528
S1130880E0ECF1E087858823ECF38091CF0181FFD0
S113089007C086E38093CA0161E08BEC91E00DCF41
S11308A00895E0ECF1E097859923ECF3E82FF0E06C
S11308B0F05F60830895FF920F931F93CF93DF93AC
S11308C0182FF92EC62F0091CA01DADFE0ECF1E00F
S11308D027852223ECF36C2F812FE3DFC0ECD1E0DA
S11308E01A82F982188385E38A8761E08BEC91E0B0
S11308F0E4DE0A87DF91CF911F910F91FF90089555
S11309000F931F93DB01E0ECF1E027852223ECF346
S11309104115510569F04A0F5B1F8C0120E030E05E
S11309202BBFF80107910D930196A417B507A9F7FA
S11309301F910F910895EF92FF920F931F93CF93FE
S1130940DF937B01EA018C010F771127209751F087
S1130950B80181E071D1F70181937F010F5F1F4FCF
S11309602197B1F7DF91CF911F910F91FF90EF90F5
S113097008952F923F924F925F926F927F928F923F
S11309809F92AF92BF92CF92DF92EF92FF920F931A
S11309901F93CF93DF9300D000D0CDB7DEB75C01B7
S11309A06B837C837A01322E452B09F04EC064C0E0
S11309B06201332079F0B20181E03ED18983B8012C
S11309C081E03AD18A8389819A81019629F022248F
S11309D0239402C089829A82E114F10409F1AC14CF
S11309E0BD0409F055C081E0E81AF108EB81FC81EF
S11309F08191EB83FC838983E114F10421F4FFEFFB
S1130A00AF1ABF0A0DC021E0E21AF108560182E0D4
S1130A10A80EB11CEB81FC818191EB83FC838A835A
S1130A2049815A81C301B2010E940F40F2E04F0E86
S1130A30511C611C711C0E5F1F4F0138110509F018
S1130A40B7CFE114F10429F40AC0212C88248A9434
S1130A50982C01E010E0412C512C3201A9CF222026
S1130A6059F0E0ECF1E087858823ECF348E160E09D
S1130A7070E0CB010E940040E0ECF1E08785882320
S1130A80ECF34AE160E070E0CB010E94004004C056
S1130A90A016B10629F6B7CF2496CDBFDEBFDF91ED
S1130AA0CF911F910F91FF90EF90DF90CF90BF9067
S1130AB0AF909F908F907F906F905F904F903F90FA
S1130AC02F9008952F923F924F925F926F927F9250
S1130AD08F929F92AF92BF92CF92DF92EF92FF924A
S1130AE00F931F93CF93DF9300D000D0CDB7DEB721
S1130AF05C013B017A01322E8078452B09F486C0D3
S1130B008B839C830F2EF0EC4F2E55245394F02DA1
S1130B1088248A94982CF20187858823E4F3CB8077
S1130B20DC80F1E8CF0ED11C0B811C810F5F1F4FBD
S1130B30212CB80161507109332071F0CB01A0E080
S1130B40B0E0ABBFFC018791969189839A830196AB
S1130B5029F02224239402C089829A82E114F104A8
S1130B60D9F06A157B0509F04DC031E0E31AF108AC
S1130B70F30181913F018983E114F10411F45801D7
S1130B800BC0F1E0EF1AF10858012FEFA21AB20AD4
S1130B90F30181913F018A8349815A8180E090E089
S1130BA00E940F400E5F1F4F0C151D0509F0C1CFA9
S1130BB08701222079F0F20187858823E4F32B81D1
S1130BC03C81C901A0E0B0E045E2BC01CD010E9436
S1130BD000400EC0F20187858823E4F32B813C8119
S1130BE0C901A0E0B0E044E2BC01CD010E94004094
S1130BF08B819C8180589F4F8B839C83012B09F0B0
S1130C008ACF04C00A151B0539F6BBCF2496CDBF85
S1130C10DEBFDF91CF911F910F91FF90EF90DF9096
S1130C20CF90BF90AF909F908F907F906F905F9088
S1130C304F903F902F9008954091CA01E62FF72FCF
S1130C408093CA0184914093CA010895FC01918163
S1130C5095FFFDCF608380E090E00895FC019181D1
S1130C609923ECF7808108952F923F924F925F92DF
S1130C706F927F928F929F92AF92BF92CF92DF92A8
S1130C80EF92FF920F931F93CF931C012A013B0114
S1130C9048015901D901C801689412F8B695A7957D
S1130CA0979587951694D1F7B901A801032E36E1DB
S1130CB076956795579547953A95D1F7302DF1017B
S1130CC0238122FD08C0B695A795979587957695BB
S1130CD067955795479584159505A605B70508F4B6
S1130CE0ABC0441655066606770608F4A7C0F101A2
S1130CF0838182FD04C0440C551C661C771CC5010D
S1130D00B401A30192010E94D00E2F3F3105410589
S1130D10510508F495C0C12CD12C7601CA94C9EFB1
S1130D2005C02C153D054E055F0568F0CC0CDD1C97
S1130D30EE1CFF1CCD3F14F46894C0F8CF5FC7309D
S1130D4081F78C2F54C08C2FCC230CF050C0D301CE
S1130D50C201880F991FAA1FBB1F880F991FAA1FC2
S1130D60BB1F880F991FAA1FBB1F85017401E81AB6
S1130D70F90A0A0B1B0BD801C701CE3FECF42DEF87
S1130D803FEF2C1B3109C7FD339504C0880F991F11
S1130D90AA1FBB1F2A95D2F773016201F694E79448
S1130DA0D794C794BC01CD016C0D7D1D8E1D9F1D74
S1130DB0A3019201F5D736C023E02C0F8301720101
S1130DC004C0EE0CFF1C001F111F2A95D2F7A801C6
S1130DD0970167017801F694E794D794C794BC010E
S1130DE0CD016C0D7D1D8E1D9F1DDAD71BC08D5F3F
S1130DF0A301920104C0220F331F441F551F8A957B
S1130E00D2F7DA01C901B695A79597958795BC01E4
S1130E10CD01680D791D8A1D9B1DC2D72150310952
S1130E2041095109832F8F70C295C07FC82BF101EE
S1130E30C783268381E01CC080E01AC080E018C00C
S1130E40D301C201880F991FAA1FBB1F880F991FC6
S1130E50AA1FBB1F880F991FAA1FBB1F85017401FE
S1130E60E81AF90A0A0B1B0BD801C701C9EF87CF8F
S1130E70CF911F910F91FF90EF90DF90CF90BF9093
S1130E80AF909F908F907F906F905F904F903F9026
S1130E902F9008950F931F93CF93DF93EC018B0151
S1130EA0892B09F477C0C11584E0D80721F464E0E4
S1130EB080E0A3D96FC0C038E1E0DE0721F462E02E
S1130EC080E09BD967C0C115F1E0DF0721F461E040
S1130ED080E093D95FC0C03883E0D80721F461E093
S1130EE081E08BD957C0C115E2E0DE0721F462E04E
S1130EF081E083D94FC0C115F3E0DF0721F464E03A
S1130F0081E07BD947C0C11588E0D80721F461E0AE
S1130F1083E073D93FC0C034E8E0DE0721F462E027
S1130F2083E06BD937C0C034F9E0DF0721F462E015
S1130F3084E063D92FC0C03B88E0D80721F464E083
S1130F4083E05BD927C0C03EE8E0DE0721F468E017
S1130F5083E053D91FC0C03CF8E0DF0721F460E10F
S1130F6083E04BD917C0C03C89E0D80721F460E185
S1130F7084E043D90FC0C038E4E0DE0721F460E424
S1130F8083E03BD907C0C036F4E0DF0719F460E81A
S1130F9080E033D98C818F738C83F80194818581AF
S1130FA0892B9681911198E0892B8C83F8014081DB
S1130FB051816281738100E012E12AE730E0CE01C1
S1130FC053DE9B8198609B839B8190619B83DF911F
S1130FD0CF911F910F910895CF92DF92EF92FF92DC
S1130FE00F931F93CF93DF931F92CDB7DEB77C018E
S1130FF06B01009709F480C08115944021F464E0EA
S113100080E0FBD879C080E8E81681E0F80621F496
S113101062E080E0F2D870C0E114E1E0FE0621F461
S113102061E080E0EAD868C0F0E8EF16F3E0FF067C
S113103021F461E081E0E1D85FC0E11422E0F2062E
S113104021F462E081E0D9D857C0E11483E0F806C6
S113105021F464E081E0D1D84FC0E114E8E0FE0659
S113106021F461E083E0C9D847C0F0E4EF16F8E06A
S1131070FF0621F462E083E0C0D83EC020E4E2161B
S113108029E0F20621F462E084E0B7D835C080EBB1
S1131090E81688E0F80621F464E083E0AED82CC0BA
S11310A0E0EEEE16E8E0FE0621F468E083E0A5D861
S11310B023C0F0ECEF16F8E0FF0621F460E183E0D2
S11310C09CD81AC020ECE21629E0F20621F460E173
S11310D084E093D811C080E8E81684E0F80621F48F
S11310E060E483E08AD808C0E0E6EE16E4E0FE0699
S11310F019F460E880E081D8F70184818F738483D8
S1131100F60194818581892B9681911198E0892B30
S1131110F7018483F601408151816281738100E08B
S113112012E12AE730E0C7019FDD182FF60194850C
S1131130992361F02385F70185818F7C85838581DF
S1131140837F85838581922B982B9583F6018781F4
S1131150882329F0F70183818064838304C0F70125
S113116083818F7B8383F6018085882329F0F701AF
S113117083818068838304C0F70183818F778383AD
S1131180F6018285882309F451C060E880E035D8EF
S1131190809178208F3F09F4FFCF8FB78983F8942B
S11311A09981E7E7F0E281818F5F81839FBF81E0CE
S11311B080936A20F0ECEF16F8E0FF0641F4E0E6D5
S11311C0F4E080818F7C8083808180830DC020EC5B
S11311D0E21629E0F20641F4E0E6F4E080818F7C37
S11311E08083808180618083F6018285813148F02B
S11311F0E0E6F4E084818F7884838481806584834D
S113120008C0E0E6F4E084818F788483848180667A
S11312108483F60182858150809369048185F70176
S113122095819C7F95839581892B8583F6018085A3
S1131230811104C0F701838188608383F70193815E
S113124090619383812F0F90DF91CF911F910F9124
S1131250FF90EF90DF90CF900895CF93DF93EB0151
S1131260FDDC8883DF91CF910895F0CC0895CF936E
S1131270DF931F92CDB7DEB79C01E0E0F3E09581E8
S113128090FFFDCF8FB78983F89499812093180339
S1131290309319039FBFE0E0F3E0858180FFFDCF29
S11312A00F90DF91CF9108951F920F920FB60F9276
S11312B011242F933F934F935F936F937F938F9357
S11312C09F93AF93BF93EF93FF9380EC99E0C6DCB9
S11312D0682F80EC99E0BADCE0ECF9E0818186FFCC
S11312E0FDCF80E48093C109FF91EF91BF91AF914D
S11312F09F918F917F916F915F914F913F912F912A
S11313000F900FBE0F901F901895CF93DF93CDB71A
S1131310DEB7CC51D140CDBFDEBF0E947B010E941D
S1131320C60087E08093A2007894E7E7F0E2108299
S1131330118212821382148281E085838FB7C45E86
S1131340DE4F8883CC51D140F894C45EDE4F98813F
S1131350CC51D14084818F5F84839FBFBE016F5F76
S11313607E4F80E093E050DA80E1CD5FDE4F8883EA
S1131370C350D14014E0CF5FDE4F1883C150D14039
S1131380CE5FDE4F8881C250D1408C79CE5FDE4F74
S11313908883C250D140CC5FDE4F1882C450D14004
S11313A0BE016F5F7E4F80E093E0D5D980E093E08B
S11313B0A7D988EE93E05BDFBE01655F7E4F80E0D6
S11313C092E0B7D8C55FDE4F9881CB50D140C45F5F
S11313D0DE4F8881CC50D1408F788062C45FDE4F6D
S11313E08883CC50D140C25FDE4F1883CE50D140A9
S11313F0892F817EC55FDE4F8883CB50D140C35F88
S1131400DE4F1882CD50D140BE01655F7E4F80E033
S113141092E03DD8AE014F5F5E4F61E080E092E024
S113142006D983E3C65FDE4F8883CA50D14081E08A
S1131430CF5FDE4F8883C150D14088E1CE5FDE4F5D
S11314408883C250D140CD5FDE4F8881C350D140E4
S1131450807FCD5FDE4F8883C350D140AE014F5FA4
S11314605E4F61E080E092E09CD880E092E00E94D0
S1131470C9018FB7C85EDE4F8883C851D140F89444
S1131480C85EDE4F9881C851D140E0E0F2E080812F
S1131490846080839FBF868180FFFDCF00E012E0DF
S11314A081E0F801868380E00E94740066E070E2C7
S11314B080EC99E091DDE0ECF9E082818F7C806141
S11314C08283E0938120F093822085E399E08093E6
S11314D07F20909380208DE299E080937D209093EB
S11314E07E2083E0CB5FDE4F8883C550D140CA5F46
S11314F0DE4F1882C650D140C95FDE4F1882C750F4
S1131500D14080E09BE4A0E0B0E0CF5FDE4F888371
S11315109983AA83BB83C150D14060E184E00E94D7
S1131520FD00BE016F5F7E4F80EC99E0B3DC60E5A7
S113153071E089E691E07BD488EE93E098DE8FB782
S1131540CC5EDE4F8883C451D140F894CC5EDE4F2C
S11315509881C451D140F8018081846080839FBF09
S1131560868180FFFDCF00E012E081E0F8018683F0
S11315708FB7CB5EDE4F8883C551D140F894CB5EE4
S1131580DE4F2881C551D14084A195A12FBF8093FE
S113159075209093762080ED97E069DE8FB7CA5E60
S11315A0DE4F8883C651D140F894CA5EDE4F9881DD
S11315B0C651D140F8018081846080839FBF8681B9
S11315C080FFFDCFE0E0F2E0BB24B394B6828FB796
S11315D0C95EDE4F8883C751D140F894C95EDE4F9F
S11315E08881C751D140C4A0D5A08FBFC0927320B9
S11315F0D09274200091752010917620B601601B62
S1131600710B072E000C880B990BDBD220E030E025
S11316104AE754E43BD260936F2070937020809328
S11316207120909372209801220F331F2C193D09C9
S113163020936D2030936E2020E030EF4FE755E487
S11316404CD38CD260936B2070936C201F930F93B8
S113165083E190E29F938F9334D4809174208F938D
S1131660809173208F938DE190E29F938F9329D47F
S113167080916E208F9380916D208F9387E290E20A
S11316809F938F931ED480916C208F9380916B20B5
S11316908F9380E490E29F938F9313D4AE014F5FB6
S11316A05E4F61E080E092E00E94170320916B207E
S11316B030916C2010916D2080916E20CE5EDE4FB3
S11316C01883C251D140CD5EDE4F8883C351D140CF
S11316D040E050E060E078EF8FE790E083D3C55FAF
S11316E0DE4F2883CB50D140C45FDE4F3883CC50CB
S11316F0D140C35FDE4F4883CD50D140C25FDE4F3F
S11317005883CE50D140CA5FDE4F1883C650D140B3
S1131710CD5EDE4F8881C351D140C95FDE4F8883DF
S1131720C750D140C85FDE4F2883C850D140C75F3F
S1131730DE4F3883C950D140CB5FDE4FB882C550ED
S1131740D140AE014F5F5E4F61E080E092E00E94C5
S1131750D102CDBFDEBF612C712CA12C6894BB24B7
S1131760B1F86894222422F84E0191E0890E991E62
S11317700F2EF7E43F2EF02D0F2EF7E54F2EF0E25B
S11317805F2EF02D0F2EF5E6CF2EF0E2DF2EF02D9A
S1131790C5010E94F401BE01655F7E4FC5010E9430
S11317A09902C55FDE4F8881CB50D140897EC45FEA
S11317B0DE4F9881CC50D1409F789062C45FDE4F59
S11317C09883CC50D140C25FDE4F2882CE50D140A6
S11317D08860C55FDE4F8883CB50D140BE01655F12
S11317E07E4FC5010E944702A40161E0C5010E9429
S11317F01703F401318681E0808388E1818382814B
S1131800807F8283A40161E0C5010E94D102C501E9
S11318100E94C901F501868180FFFCCF81E08683A7
S1131820F501868180FFFCCF81E08683F501868106
S113183080FFFCCF11E016838FB7C55EDE4F88832F
S1131840CB51D140F894C55EDE4F8881CB51D14055
S113185024A135A18FBFC5010E94F401BE01655FBB
S11318607E4FC5010E949902C55FDE4F8881CB502F
S1131870D140897EC45FDE4F9881CC50D1409F789F
S11318809062C45FDE4F9883CC50D140C25FDE4F7C
S11318902882CE50D1408860C55FDE4F8883CB500C
S11318A0D140BE01655F7E4FC5010E944702A4017D
S11318B061E0C5010E941703F4013186108388E2B8
S11318C081838281807F8283A40161E0C5010E94BB
S11318D0D102C5010E94C901F501868180FFFCCFB8
S11318E081E08683F501868180FFFCCF81E08683D9
S11318F0F501868180FFFCCF81E086838FB7C65EC9
S1131900DE4F8883CA51D140F894C65EDE4F888189
S1131910CA51D14024A135A18FBFC5010E94F40151
S1131920BE01655F7E4FC5010E949902C55FDE4F0F
S11319309881CB50D140997EC45FDE4F8881CC50D2
S1131940D1408F78C25FDE4F2882CE50D14098605C
S1131950C55FDE4F9883CB50D1408160C45FDE4FBA
S11319608883CC50D140BE01655F7E4FC5010E9483
S11319704702A40161E0C5010E941703F401318606
S1131980108211828281807F8283A40161E0C5017B
S11319900E94D102C5010E94C901F501868180FF20
S11319A0FCCF81E08683F501868180FFFCCF81E056
S11319B08683F501868180FFFCCF81E086838FB723
S11319C0C75EDE4F8883C951D140F894C75EDE4FAD
S11319D08881C951D14024A135A18FBFC30147DCFF
S11319E0FFEF6F1A7F0A611481E0780611F4612C0D
S11319F0712CA301505C60E070E0262D80E00E9411
S1131A007A00A3015F5B60E070E0262D80E00E9415
S1131A107A00A3015E5B60E070E0262D80E00E9406
S1131A207A00A3015D5B60E070E0262D80E00E94F7
S1131A307A007F926F925F924F9243D2E12CF12C05
S1131A408701F3949E012F5F3F4F40E050E460E034
S1131A5070E080E00E94A4008E010F5F1F4F0F9082
S1131A600F900F900F90F80181918F011F928F9327
S1131A70DF92CF9226D20F900F900F900F900815FF
S1131A80190589F78AE090E02FD282CE0CD0EBC002
S1131A90E3D040F0DAD030F021F45F3F19F0CCC04D
S1131AA0511115C1CFC0F0D098F39923C9F3552330
S1131AB0B1F3951B550BBB27AA276217730784073D
S1131AC038F09F5F5F4F220F331F441FAA1FA9F3F3
S1131AD033D00E2E3AF0E0E830D091505040E695E5
S1131AE0001CCAF729D0FE2F27D0660F771F881F46
S1131AF0BB1F261737074807AB07B0E809F0BB0B35
S1131B00802DBF01FF2793585F4F2AF09E3F510558
S1131B1068F092C0DCC05F3FECF3983EDCF386953E
S1131B2077956795B795F7959F5FC9F7880F911DCE
S1131B309695879597F90895E1E0660F771F881FBA
S1131B40BB1F621773078407BA0720F0621B730B6D
S1131B50840BBA0BEE1F88F7E095089504D06894BF
S1131B60B111B5C0089598D088F09F5790F0B92F5F
S1131B709927B751A0F0D1F0660F771F881F991FDE
S1131B801AF0BA95C9F712C0B13081F09FD0B1E014
S1131B9008959CC0672F782F8827B85F39F0B93F24
S1131BA0CCF3869577956795B395D9F73EF49095E0
S1131BB08095709561957F4F8F4F9F4F0895E8945E
S1131BC009C097FB3EF490958095709561957F4F81
S1131BD08F4F9F4F9923A9F0F92F96E9BB2793952F
S1131BE0F695879577956795B795F111F8CFFAF43F
S1131BF0BB0F11F460FF1BC06F5F7F4F8F4F9F4F70
S1131C0016C0882311F096E911C0772321F09EE8CD
S1131C10872F762F05C0662371F096E8862F70E033
S1131C2060E02AF09A95660F771F881FDAF7880F0D
S1131C309695879597F9089597F99F6780E870E0DE
S1131C4060E008959FEF80EC089500240A9416162E
S1131C50170618060906089500240A941216130696
S1131C60140605060895092E0394000C11F4882324
S1131C7052F0BB0F40F4BF2B11F460FF04C06F5F40
S1131C807F4F8F4F9F4F089557FD9058440F551F16
S1131C9059F05F3F71F04795880F97FB991F61F0EA
S1131CA09F3F79F087950895121613061406551F61
S1131CB0F2CF4695F1DF08C0161617061806991FCD
S1131CC0F1CF86957105610508940895E894BB27C2
S1131CD066277727CB0197F908950BD0C4CFB5DFDA
S1131CE028F0BADF18F0952309F0A6CFABCF112462
S1131CF0EECFCADFA0F3959FD1F3950F50E0551FA7
S1131D00629FF001729FBB27F00DB11D639FAA274C
S1131D10F00DB11DAA1F649F6627B00DA11D661F9B
S1131D20829F2227B00DA11D621F739FB00DA11DBC
S1131D30621F839FA00D611D221F749F3327A00D76
S1131D40611D231F849F600D211D822F762F6A2F12
S1131D5011249F5750408AF0E1F088234AF0EE0F97
S1131D60FF1FBB1F661F771F881F91505040A9F7A4
S1131D709E3F510570F060CFAACF5F3FECF3983ED1
S1131D80DCF3869577956795B795F795E7959F5F0B
S1131D90C1F7FE2B880F911D9695879597F90895A5
S1131DA0A1E21A2EAA1BBB1BFD010DC0AA1FBB1F5B
S1131DB0EE1FFF1FA217B307E407F50720F0A21BCD
S1131DC0B30BE40BF50B661F771F881F991F1A943A
S1131DD069F760957095809590959B01AC01BD0164
S1131DE0CF010895052E97FB16F400940FD057FDEC
S1131DF005D0D6DF07FC02D046F408C050954095C4
S1131E00309521953F4F4F4F5F4F089590958095A2
S1131E10709561957F4F8F4F9F4F0895FB01DC01B3
S1131E2002C001900D9241505040D8F708950F938D
S1131E301F93CF93DF93009731F46115710519F463
S1131E4080E090E039C08B01EC016EE070E081E04D
S1131E5090E012D2FC01892B99F380E88383011569
S1131E60110571F00287138781E8838380918520AF
S1131E7090918620892B21F4E0938520F09386208D
S1131E802097C9F0C087D187838182608383809142
S1131E90872090918820892B71F4E0938720F09318
S1131EA088208091892090918A20892B21F4E093C5
S1131EB08920F0938A20CF01DF91CF911F910F9158
S1131EC00895A0E0B0E0E6E6FFE0E0C3AE014B5FBA
S1131ED05F4FFA0161917191AF01809187209091D8
S1131EE0882007D0E2E0EBC36091872070918820BE
S1131EF027C3ACE0B0E0EEE7FFE0B8C37C016B01C0
S1131F008A01FC0116821782838181FFB0C1CE0150
S1131F1001964C01F7019381F60193FD859193FF9E
S1131F2081916F01882309F49EC1853239F493FDB0
S1131F30859193FF81916F01853221F4B70190E07F
S1131F40FFD2E8CF512C312C20E02032A0F48B3288
S1131F5069F030F4803259F0833269F420612CC086
S1131F608D3239F0803339F4216026C02260246038
S1131F7023C0286021C027FD27C030ED380F3A3038
S1131F8078F426FF06C0FAE05F9E300D1124532E2C
S1131F9013C08AE0389E300D1124332E20620CC009
S1131FA08E3221F426FD5FC1206406C08C3611F404
S1131FB0206802C0883641F4F60193FD859193FFB1
S1131FC081916F018111C1CF982F9F7D95549330DA
S1131FD028F40C5F1F4FFFE3F9830DC0833631F003
S1131FE0833771F0833509F057C021C0F80180812F
S1131FF089830E5F1F4F44244394512C540114C011
S11320003801F2E06F0E711CF801A080B18026FF48
S113201003C0652D70E002C06FEF7FEFC5012C8710
S113202084D22C0183012C852F77222E16C03801EF
S1132030F2E06F0E711CF801A080B18026FF03C08E
S1132040652D70E002C06FEF7FEFC5012C875BD276
S11320502C012C852068222E830123FC19C0832D9A
S113206090E048165906A0F4B70180E290E068D2E7
S11320703A94F5CFF50127FC859127FE81915F0104
S1132080B70190E05DD231103A94F1E04F1A510853
S11320904114510479F7DEC0843611F0893631F5E4
S11320A0F80127FF07C060817181828193810C5FF1
S11320B01F4F08C060817181072E000C880B990B9B
S11320C00E5F1F4F2F76722E97FF09C09095809553
S11320D0709561957F4F8F4F9F4F2068722E2AE035
S11320E030E0A40165D2A82EA81843C0853729F48E
S11320F02F7EB22E2AE030E025C0F22FF97FBF2ECA
S11321008F36C1F018F4883579F0ADC0803719F0F6
S1132110883721F0A8C02F2F2061B22EB4FE0DC045
S11321208B2D8460B82E09C024FF0AC09F2F9660AF
S1132130B92E06C028E030E005C020E130E002C03E
S113214020E132E0F801B7FE07C06081718182812D
S113215093810C5F1F4F06C06081718180E090E025
S11321600E5F1F4FA40124D2A82EA818FB2DFF77C1
S11321707F2E76FE0BC0372D3E7FA51450F474FEDF
S11321800AC072FC08C0372D3E7E05C0BA2C372D1C
S113219003C0BA2C01C0B52C34FF0DC0FE01EA0DFA
S11321A0F11D8081803311F4397E09C032FF06C0ED
S11321B0B394B39404C0832F867809F0B39433FDA9
S11321C012C030FF06C05A2CB31418F4530C5B1819
S11321D0B32CB31460F4B70180E290E03C87B0D133
S11321E0B3943C85F6CFB31410F43B1801C0312CE2
S11321F034FF11C0B70180E390E03C87A1D13C8556
S113220032FF16C031FD03C088E790E002C088E5C4
S113221090E0B7010CC0832F867851F031FF02C0E3
S11322208BE201C080E237FD8DE2B70190E088D1F6
S1132230A51430F4B70180E390E082D15A94F8CF2A
S1132240AA94F401EA0DF11D8081B70190E078D1E0
S1132250A110F6CF332009F45DCEB70180E290E0FF
S11322606FD13A94F7CFF7018681978102C08FEF3F
S11322709FEF2C96E2E113C20F931F93CF93DF934A
S1132280869F8001879F100D969F100D1124C80111
S11322900DD0EC01009721F0A80160E070E03ED180
S11322A0CE01DF91CF911F910F910895CF93DF93CA
S11322B08230910510F482E090E0E0918D20F0915D
S11322C08E2020E030E0C0E0D0E0309711F1408172
S11322D0518148175907C0F04817590761F48281A2
S11322E09381209719F08A839B832BC080938D2040
S11322F090938E2026C02115310519F042175307FB
S113230018F49A01BE01DF01EF010280F381E02D90
S1132310DCCF2115310509F1281B390B2430310597
S113232090F412968D919C9113976115710521F08B
S1132330FB018283938304C080938D2090938E202D
S1132340FD01329644C0FD01E20FF31F8193919386
S1132350225031092D933C933AC020918B20309127
S11323608C20232B41F420910220309103202093D0
S11323708B2030938C202091002030910120211556
S1132380310541F42DB73EB740910420509105200A
S1132390241B350BE0918B20F0918C20E217F3077E
S11323A0A0F42E1B3F0B2817390778F0AC014E5FC1
S11323B05F4F2417350748F04E0F5F1F40938B2063
S11323C050938C208193919302C0E0E0F0E0CF0120
S11323D0DF91CF9108950F931F93CF93DF930097CD
S11323E009F48CC0FC0132971282138200918D2073
S11323F010918E200115110581F420813181820F05
S1132400931F20918B2030918C202817390779F560
S1132410E0938B20F0938C2071C0D80140E050E011
S1132420AE17BF0750F412962D913C911397AD014E
S11324302115310509F1D901F3CF9D01DA01228378
S1132440338360817181860F971F8217930769F424
S1132450EC0128813981260F371F2E5F3F4F2083DF
S113246031838A819B8182839383452B29F4E09372
S11324708D20F0938E2042C01296ED93FC93139717
S1132480ED01499159919E01240F351FE217F3077D
S113249071F480819181840F951F02968D939C9392
S11324A011978281938112968D939C931397E0E008
S11324B0F0E0D80112968D919C911397009719F032
S11324C0F8018C01F6CF8D919C9198012E5F3F4FBE
S11324D0820F931F20918B2030918C20281739076D
S11324E069F4309729F410928D2010928E2002C046
S11324F01282138200938B2010938C20DF91CF9152
S11325001F910F910895FC010590615070400110D6
S1132510D8F7809590958E0F9F1F0895DC0101C018
S11325206D9341505040E0F70895FC0161507040B4
S113253001900110D8F7809590958E0F9F1F0895F4
S11325400F931F93CF93DF93FB01238121FD03C0DE
S11325508FEF9FEF28C022FF16C046815781248148
S113256035814217530744F4A081B1819D012F5F47
S11325703F4F208331838C93268137812F5F3F4FD8
S11325802683378310C0EB01092F182F0084F185AF
S1132590E02D0995892BE1F68E819F8101968E832A
S11325A09F83812F902FDF91CF911F910F910895D9
S11325B0FA01AA27283051F1203181F1E8946F9370
S11325C06E7F6E5F7F4F8F4F9F4FAF4FB1E03ED016
S11325D0B4E03CD0670F781F891F9A1FA11D680FB4
S11325E0791F8A1F911DA11D6A0F711D811D911DE7
S11325F0A11D20D009F468943F912AE0269F11245C
S11326003019305D3193DEF6CF010895462F4770BF
S1132610405D4193B3E00FD0C9F7F6CF462F4F701A
S1132620405D4A3318F0495D31FD4052419302D078
S1132630A9F7EACFB4E0A69597958795779567951E
S1132640BA95C9F700976105710508959B01AC011E
S11326500A2E06945795479537952795BA95C9F745
S1132660620F731F841F951FA01D08952F923F9220
S11326704F925F926F927F928F929F92AF92BF928E
S1132680CF92DF92EF92FF920F931F93CF93DF933A
S1132690CDB7DEB7CA1BDB0BCDBFDEBF09942A88DA
S11326A0398848885F846E847D848C849B84AA8462
S11326B0B984C884DF80EE80FD800C811B81AA81EF
S11326C0B981CE0FD11DCDBFDEBFED010895F894C1
S10526D0FFCF36
S11326D200008F202000004B0000030000010000D6
S11326E200000079312025642C202020007932203A
S11326F225642C202020004F666673657420636F66
S11327027272656374696F6E2025642C2020200028
S113271263617074757265645F76616C756520259A
S1132722640A2C20202000692056616C75653A20C9
S10B27322534750A002564003A
S11380009BB78BBFFB018091CA014093CA017DE9F4
S113801070933400E8958093CA019BBF0895209122
S1138020CF0127FDFCCF9BB78BBFFB018091CA0119
S113803023E22093CA010A01E89511248093CA011E
S10780409BBF089541
S9030000FC
